:100000000C94F2000C941A010C941A010C941A012D
:100010000C941A010C941A010C941A010C941A01F4
:100020000C941A010C941A010C941A010C941A01E4
:100030000C941A010C94D6240C941A010C941A01F5
:100040000C9450260C941A010C9413290C944529F5
:100050000C941A010C941A010C941A010C941A01B4
:100060000C941A010C941A01E515FD157C166B17FA
:100070008B17AB17B3176017005EBCE2613FDD83DF
:10008000C29C7E20A3FD1F419DC3217FFCA2401E78
:100090005F01E3BD3E6082DC237D9FC1421CFEA068
:1000A000E1BF5D0380DE3C62BEE0025CDF81633D58
:1000B0007C22C09E1D43A1FF4618FAA427799BC548
:1000C00084DA3866E5BB5907DB856739BAE4065838
:1000D0001947A5FB7826C49A653BD987045AB8E628
:1000E000A7F91B45C6987A24F8A6441A99C7257B18
:1000F0003A6486D85B05E7B98CD2306EEDB3510F08
:100100004E10F2AC2F7193CD114FADF3702ECC92F7
:10011000D38D6F31B2EC0E50AFF1134DCE90722CE7
:100120006D33D18F0C52B0EE326C8ED0530DEFB1D7
:10013000F0AE4C1291CF2D73CA947628ABF51749C7
:100140000856B4EA6937D58B5709EBB536688AD4B7
:1001500095CB2977F4AA4816E9B7550B88D6346AA7
:100160002B7597C94A14F6A8742AC896154BA9F797
:10017000B6E80A54D7896B35000000080002010078
:100180000003040700000000000000000102040852
:1001900010204080010204081020010204081020F1
:1001A000040404040404040402020202020203031D
:1001B00003030303000000002300260029000000C1
:1001C0000000250028002B0000000000240027006C
:1001D0002A009C026E05CD05CF09790D870D84108C
:1001E0007529082A11241FBECFEFD8E0DEBFCDBF8E
:1001F00012E0A0E0B1E0ECEDF7E602C005900D9250
:10020000A83AB107D9F727E0A8EAB2E001C01D92E9
:10021000AF30B207E1F711E0C4EED1E004C022979D
:10022000FE010E94782EC23DD107C9F70E94182A0C
:100230000C94EC330C9400006115710581F0DB0126
:100240000D900020E9F7AD0141505109461B570BB5
:10025000DC01ED91FC910280F381E02D099480E0B6
:1002600090E00895CF93DF9300D000D000D0CDB7B9
:10027000DEB740ED57E060E070E08BEF94E00E9465
:10028000B72520E835E240E050E06BE375E08BEF06
:1002900094E00E94CA258BEF94E00E94B42565E1AA
:1002A00071E080912C0590912D050E944F2A6AE003
:1002B00070E080E090E00E94C92641E060E08BEFB2
:1002C00094E00E94352626E040E855E260E070E0C8
:1002D0008BE395E00E94B12885EA92E09A838983B6
:1002E0008091D2029091D302A091D402B091D50214
:1002F0008B839C83AD83BE83AE014F5F5F4F6EE007
:1003000071E083E593E00E94BB0C67E271E08BE350
:1003100095E00E946C2A61E088E00E945F2761E01E
:1003200088E00E94982761E087E00E945F2761E0F3
:1003300087E00E94982761E086E00E945F2761E0E5
:1003400086E00E94982761E085E00E945F2761E0D7
:1003500085E00E94982761E084E00E945F2761E0C9
:1003600084E00E94982761E083E00E945F2761E0BB
:1003700083E00E94982761E082E00E945F2761E0AD
:1003800082E00E94982786ED92E00E94E920A091E9
:100390000C01B0910D0120E432E44FE050E00E94E6
:1003A000872EAB01BC0186EF94E00E9460252FEF01
:1003B0003FEFA9016FE974E086EF94E00E94702599
:1003C00026960FB6F894DEBF0FBECDBFDF91CF915A
:1003D0000895CF93DF93C0E0D0E08091B50290E024
:1003E0000C2E02C0959587950A94E2F7219680FF1E
:1003F00005C0C130D10511F060E001C061E08C2F73
:100400000E949827C830D10541F7DF91CF91089518
:10041000E091B5022E2F30E0082E02C035952795C9
:100420000A94E2F720FD1BC00097C9F089309105BE
:10043000B4F441E050E060E070E0082E04C0440FE6
:10044000551F661F771F0A94D2F74E2B4093B502B3
:1004500021E02093A9021092AB0241E001C040E0EC
:10046000E091B5022E2F30E0082E02C03595279579
:100470000A94E2F720FF1BC00097C9F0893091056C
:10048000B4F4411114C041E050E060E070E004C0F9
:10049000440F551F661F771F8A95D2F740954E234C
:1004A0004093B50281E08093A9021092AB020895B7
:1004B00086ED92E00E94B92160E086ED92E00E9414
:1004C000AD2220E030E040E05FE30E94662C0E9415
:1004D000322D6093B3027093B4027F936F938AE3DB
:1004E00091E09F938F938DEA92E09F938F930E9468
:1004F0000B318091B3029091B4020F900F900F9046
:100500000F900F900F902091B1023091B2022817F6
:10051000390779F09093B2028093B10281E0809321
:10052000AA021092AC026DE371E08BE395E00C94AB
:100530006C2A1092AA0208950F9300E020E040E098
:1005400060E087EF92E00E94FC2969E089EE92E08A
:100550000E940A2469EE72E086ED92E00E94BF1FBD
:1005600002EB21EB48EA60EC80ED92E00E94FC296E
:100570000DE021EB48EA60EC8AEC92E00E94FC2955
:1005800086EB92E00F910C94690FEF92FF920F931C
:100590001F93CF93DF9300D000D000D0CDB7DEB74C
:1005A00068E571E08BE395E00E946C2A85EA92E0B1
:1005B0009A8389834091CC025091CD026091CE0202
:1005C0007091CF024B835C836D837E8348E55BE152
:1005D000BE016F5F7F4F86EB92E00E94330E8C016D
:1005E00061E671E08BE395E00E944F2A0115110549
:1005F00019F069E471E002C061E571E08BE395E018
:100600000E946C2A012B29F486EB92E00E94080ECE
:100610001DC064E771E086EB92E00E941C017C0142
:1006200086EB92E00E9457108C0169E771E08BE342
:1006300095E00E944F2A012B19F069E471E002C095
:1006400061E571E08BE395E00E946C2A86EB92E015
:10065000EF2821F00E94080E81E003C00E94080EDE
:1006600080E026960FB6F894DEBF0FBECDBFDF91B7
:10067000CF911F910F91FF90EF900895CF92DF924D
:10068000EF92FF920F931F93CF93DF93CDB7DEB717
:100690002C970FB6F894DEBF0FBECDBFEDB6FEB6F9
:1006A0006AE871E08BE395E00E946C2A63E971E0EF
:1006B000CE0107960E94BB2B6DEA72E0CE01079631
:1006C0000E94FD2B4B855C854F5F5F4F8DB79EB7BA
:1006D000841B950B0FB6F8949EBF0FBE8DBF0DB750
:1006E0001EB70F5F1F4F20E030E0B801CE01079624
:1006F0000E943A2C85EA92E09A8389838091CC0209
:100700009091CD02A091CE02B091CF028B839C83B9
:10071000AD83BE8348E55BE1BE016F5F7F4F86EB33
:1007200092E00E94330E6C0169E971E08BE395E081
:100730000E944F2AC114D10419F069E471E002C08B
:1007400061E571E08BE395E00E946C2ACD2831F4DD
:1007500086EB92E00E94080E10E027C0B80186EBFD
:1007600092E00E941C018C0186EB92E00E945710DF
:100770006C0186EB92E00E94080E6CEA71E08BE35C
:1007800095E00E944F2ACD2819F069E471E002C07B
:1007900061E571E08BE395E00E946C2A012BC1F2C8
:1007A00086EB92E00E94080E11E0CE0107960E94AF
:1007B0004D2B812F0FB6F894FEBE0FBEEDBE2C96CA
:1007C0000FB6F894DEBF0FBECDBFDF91CF911F9162
:1007D0000F91FF90EF90DF90CF900895CF92DF922E
:1007E000EF92FF920F931F93CF93DF93CDB7DEB7B6
:1007F0002C970FB6F894DEBF0FBECDBFEDB6FEB698
:100800006DEB71E08BE395E00E946C2A68EC71E07F
:10081000CE0107960E94BB2B6091B502CE010796D0
:100820000E940D2C4B855C854F5F5F4F8DB79EB747
:10083000841B950B0FB6F8949EBF0FBE8DBF0DB7EE
:100840001EB70F5F1F4F20E030E0B801CE010796C2
:100850000E943A2C85EA92E09A8389838091CC02A7
:100860009091CD02A091CE02B091CF028B839C8358
:10087000AD83BE8348E55BE1BE016F5F7F4F86EBD2
:1008800092E00E94330E6C0160ED71E08BE395E025
:100890000E944F2AC114D10419F069E471E002C02A
:1008A00061E571E08BE395E00E946C2ACD2831F47C
:1008B00086EB92E00E94080E10E028C0B80186EB9B
:1008C00092E00E941C018C0186EB92E00E9457107E
:1008D0006C0186EB92E00E94080E65EE71E08BE3FE
:1008E00095E00E944F2ACD2819F069E471E002C01A
:1008F00061E571E08BE395E00E946C2A1016110609
:10090000BCF686EB92E00E94080E11E0CE0107963D
:100910000E944D2B812F0FB6F894FEBE0FBEEDBE88
:100920002C960FB6F894DEBF0FBECDBFDF91CF91EE
:100930001F910F91FF90EF90DF90CF90089568EF97
:1009400071E08BE395E00E946C2A0E943E030C94B8
:10095000EE03EF92FF920F931F93CF93DF93CDB7E8
:10096000DEB7EDB6FEB668EB72E286EB92E00E946F
:10097000CC0D86EB92E00E94E40EAC014F5F5F4F1E
:100980002DB73EB7241B350B0FB6F8943EBF0FBEF4
:100990002DBF0DB71EB70F5F1F4F18161906BCF5F8
:1009A000E091B602F091B702008CF18DE02DB80114
:1009B00086EB92E0099586EB92E00E94270E86EB8B
:1009C00092E00E94080E6EEF71E08BE395E00E94CA
:1009D0004F2AB8018BE395E00E946C2AC8010E945F
:1009E0008F308C010150110969E072E08BE395E0D2
:1009F0000E944F2A4AE050E0B8018BE395E00E9444
:100A0000212BC8010E9408020E94E90104C086EB64
:100A100092E00E94080E86EB92E00E94080E0FB64C
:100A2000F894FEBE0FBEEDBEDF91CF911F910F91E6
:100A3000FF90EF9008950E9458028091A8028111C2
:100A400007C00E94C502882319F081E08093A802A4
:100A50008091AA02882321F08091AC02882321F0A2
:100A600080910B018823B1F08091A802882391F036
:100A70000E943E03882361F081E08093AC02809164
:100A80000B01882339F00E943E0310920B0102C033
:100A90001092AC028091A902882321F08091AB02D0
:100AA000882321F080910A018823B1F08091A80267
:100AB000882391F00E94EE03882361F081E0809307
:100AC000AB0280910A01882339F00E94EE03109254
:100AD0000A0102C01092AB020C94A9040F9300E02B
:100AE00020E040E060E08DEF92E00E94FC290F9151
:100AF0000895FB014281538164817581FC01428329
:100B0000538364837583178216820895CF93FB0104
:100B10008191811107C0FB0180E090E020E030E08E
:100B2000CAE01AC08E32A1F380538A3088F380E085
:100B300090E031C024303105D4F76E3289F48F3F14
:100B4000910509F0A4F7DA01A20FB31F12968C9356
:100B50002F5F3F4F80E090E061916111EBCF0EC0BD
:100B6000DC01CA9FC001CB9F900D1124772767FD40
:100B7000709560537109860F971FEECF8F3F9105D7
:100B800009F0ACF62430310594F6FA01E20FF31FB8
:100B9000828381E090E0CF9108950F9300E020E000
:100BA00040E060E083E093E00E94FC290F9108950B
:100BB000AF92BF92CF92DF92EF92FF920F931F936B
:100BC000CF93DF9300D01F92CDB7DEB76C017B01CE
:100BD0000E949A26F601778366838601085F1F4F7D
:100BE000B6016A5F7F4F42E050E0C8010E94CB0E21
:100BF00081E090E09A83898342E050E0BE016F5F1C
:100C00007F4FC8010E94CB0E80E091E09A838983D8
:100C100042E050E0BE016F5F7F4FC8010E94CB0EE3
:100C20001A82198242E050E0BE016F5F7F4FC80117
:100C30000E94CB0E42E050E0BE016F5F7F4FC801C3
:100C40000E94CB0E42E050E0BE016F5F7F4FC801B3
:100C50000E94CB0E6701F6018081882311F1F70114
:100C60006F018191811115C05601AE18BF081A1489
:100C70001B0494F4AB8241E050E0BE016D5F7F4FF6
:100C8000C8010E94CB0EA501B701C8010E94CB0E7E
:100C900003C08E3229F7E8CF7601FFEFEF1AFF0A83
:100CA000DACF1B8241E050E0BE016D5F7F4FC8018B
:100CB0000E94CB0EE12CFF24F394FA82E98242E0F9
:100CC00050E0BE016F5F7F4FC8010E94CB0EFA82D9
:100CD000E98242E050E0BE016F5F7F4FC8010E9491
:100CE000CB0E81E090E00F900F900F90DF91CF91AD
:100CF0001F910F91FF90EF90DF90CF90BF90AF903A
:100D000008954F925F926F927F928F929F92AF92CF
:100D1000BF92CF92DF92EF92FF920F931F93CF93E8
:100D2000DF93CDB7DEB763970FB6F894DEBF0FBE83
:100D3000CDBF7C015B016A010E949A262B013C0118
:100D40008701085F1F4F4501A12CB12CC8010E94EB
:100D5000E40E181619069CF00E949A26641975096B
:100D60008609970986169706A806B90608F415C1DC
:100D700062E370E080E090E00E94C926E7CFF701CF
:100D800082809380A480B580B801CE0101960E9434
:100D9000500F8B819C81AD81BE8188169906AA0671
:100DA000BB0609F0FDC0C8010E94FA0DC59709F005
:100DB000F7C0C8010E94F30E0C970CF4F4C04CE08D
:100DC00050E0BE016F5F7F4FC8010E94210F8B81F1
:100DD0009C819827892798279A8B898BF7014681D0
:100DE000578129813A814217530711F497FD06C0B4
:100DF000C8010E94270E8CEF9FEFD7C08F709270B2
:100E0000892B31F0C8010E94270E8BEF9FEFCDC0D8
:100E1000AF80B884BA24AB24BA24A114B10419F069
:100E2000E12CF12C23C0C8010E94270E8AEF9FEF0E
:100E3000BCC041E050E0BE01635F7F4FC8010E942B
:100E4000210F8D8581111BC08D858111F2CFC801C5
:100E50000E94AF0DC8010E94AF0DC8010E94AF0DE6
:100E6000C8010E94AF0DFFEFEF1AFF0A8D819E812E
:100E7000982789279827E816F906D8F20AC08D85A1
:100E80009FEF980F9D878823F9F2C8010E94AF0D4C
:100E9000F6CFE12CF12C41E050E0BE016D5E7F4FBA
:100EA000C8010E94210F8B89982F907C61F48823C0
:100EB00071F08B899FEF980F9B8B882341F0C801BD
:100EC0000E94AF0DF6CFC8010E94AF0D1B8A8B891F
:100ED0008111E1CF42E050E0BE01615F7F4FC80168
:100EE0000E94210F42E050E0BE01635F7F4FC801C6
:100EF0000E94210FC8010E94AF0DC8010E94AF0DD2
:100F0000C8010E94AF0DC8010E94AF0D42E050E041
:100F1000BE016F5E7F4FC8010E94210F8F859889A7
:100F20008115914029F48D859E858115914019F098
:100F3000812C912C16C089899A898115944031F0B1
:100F4000C8010E94270E87EF9FEF2FC0B6016E5F8A
:100F50007F4F44E050E0C8010E94210F81E090E003
:100F600024C089899A8998278927982788169906FD
:100F700038F4C8010E94AF0D2FEF821A920AF1CF08
:100F80008FEFE81AF80AEA14FB0409F084CFC801CD
:100F90000E94270E86EF9FEF08C08FEF9FEF05C0DE
:100FA0008EEF9FEF02C08DEF9FEF63960FB6F89420
:100FB000DEBF0FBECDBFDF91CF911F910F91FF908C
:100FC000EF90DF90CF90BF90AF909F908F907F90E9
:100FD0006F905F904F9008958F929F92AF92BF92C3
:100FE000CF92DF92EF92FF920F931F93CF93DF93F5
:100FF00000D000D000D0CDB7DEB78C015B016A0114
:101000000E9486054C01009709F05DC0F8014281FD
:101010005381648175818091050390910603A091AD
:101020000703B0910803481759076A077B0709F4BB
:101030004EC00E949A267801F8E0EF0EF11C6F7006
:1010400077277C5FC7010E94CC0D813009F043C037
:1010500085EA92E09A838983F80182819381A48151
:10106000B5818B839C83AD83BE8345E350E0BE0195
:101070006F5F7F4FC7010E94330E892B19F4812CBB
:10108000912C1DC0B501C8010E94D805892BB9F368
:10109000C7010E945710892B91F333E0A32EB12C86
:1010A000A60168E873E1C8010E9481064C01F1E0E5
:1010B000AF1AB10821F08F3F2FEF920789F3C701D4
:1010C0000E94080E08C088248394912C04C09EEFCF
:1010D000892E99249A94C40126960FB6F894DEBFFF
:1010E0000FBECDBFDF91CF911F910F91FF90EF9079
:1010F000DF90CF90BF90AF909F908F900895CF9347
:10110000DF93E9E0F3E080E0908191110AC0806113
:10111000DF018D9380E1ED0119928A95E9F7CF0106
:1011200006C08F5F7196843079F780E090E0DF91A0
:10113000CF9108950F931F93CF93DF938C01EC0110
:1011400089910E947A1FF801C80104962991219380
:10115000E817F907D9F7F8011482DF91CF911F91B1
:101160000F9108951F93CF93DF93EC0115E08881D1
:101170000E947A1F19921150D1F7DF91CF911F91E0
:101180000895DF92EF92FF920F931F93CF93DF9317
:10119000E091EB05F091EC05C48DD58D209781F49D
:1011A0008091E60586FF45C00E947F08EC0100970C
:1011B00009F43FC0E091EB05F091EC05958F848F29
:1011C0008091E60581FF07C08091DE059091DF05E3
:1011D000892B09F043C0888187FF0EC08F778883F1
:1011E0008091E60582608093E605E091EB05F09141
:1011F000EC05818D8F7E818F8091E60584FF6DC027
:10120000CE0106960E94B2088981882309F468C03D
:10121000E091EB05F091EC05848195819F838E83AD
:10122000888180648883E091EB05F091EC05158E50
:10123000148EE12CF12CB7018091E9059091EA051B
:101240000E945F18F092DF05E092DE05DF91CF91FA
:101250001F910F91FF90EF90DF9008958881807625
:1012600009F0B9CFE12CF12C8E010E0D1F1DF801F4
:10127000818181111EC08091DE059091DF050E9461
:10128000DB1EF80181838823A1F00091DE05109117
:10129000DF052091E9053091EA0529573640409154
:1012A000610360E070E00E94931DF4E0EF1293CFC1
:1012B0000CC02FEFE21AF20A35E0E316F104A1F6B2
:1012C00080915E038E7F80935E03E091EB05F09149
:1012D000EC05818D8061818F7ECF87FF03C090CF29
:1012E0001882A1CF80FF04C0CE0106960E949A0802
:1012F0008091E6058C70D1F18E818823B9F19F81B0
:1013000091110CC0EB84FC84E114F10409F491CF39
:10131000A70160E070E00E94AF1F06C00E94E71ABC
:101320007C01009709F485CF8091E9059091EA0549
:101330008957964080935F03F701E80FF11DCF01B5
:101340000E94DB1E80936003882309F474CF6091B0
:101350005F0370E0870120E030E04E810E94931D22
:1013600080915E03826080935E0365CF888185FFF4
:1013700060CF8E8181110BC01882E091EB05F09156
:10138000EC05158E148E80E18093E60552CFE09136
:10139000EB05F091EC05818D8061818F4ACF0F9331
:1013A00000E020E040E060E08DE493E00E94FC2952
:1013B0000F91089525EA32E0FC01318320834091AA
:1013C0005A0350915B0360915C0370915D0342830B
:1013D000538364837583089580915E0381FF11C0F8
:1013E00020915F0330E049E756E060E070E08091D3
:1013F00060030E94A21C80915E038D7F80935E0338
:1014000014C08091DE059091DF050E94DB1E809361
:1014100060038823B1F02091DE053091DF0549E7B4
:1014200056E060E070E00E94A21C809160030E9480
:10143000001D809160030E947A1F1092600381E07A
:10144000089580E00895CF92DF92EF92FF921F936C
:10145000CF93DF9380916103811104C00E94F81B38
:101460008093610380916103882309F447C091E070
:1014700090935E030E94E71A9093DF058093DE0548
:10148000892B81F122E630E049E756E060E070E028
:10149000809161030E94901C809185069091860640
:1014A0008830910591F480916103809360030E94DC
:1014B000121981E00E946A118091DE059091DF058A
:1014C000892B81F00E94F0190BC08830964051F4AE
:1014D0000E9446198091DE059091DF05892B11F05D
:1014E0000E94EC0980916103882341F080915E03A2
:1014F00080FF04C00E94F61B109261030E949A268E
:101500006B017C018091540390915503A091560387
:10151000B0915703A7019601281B390B4A0B5B0BAF
:10152000DA01C90180959095A095B0958827B7FDFF
:1015300083959927AA27BB27182FCDEED5E0D09306
:10154000EC05C093EB05112311F082E00FC0EC8D88
:10155000FD8D4585568567857089D701C601841B39
:10156000950BA60BB70BB7FD0DC083E00E946A1167
:101570002091DE053091DF05232B21F00E94F01928
:101580000E94EC096E9696E0C536D907C1F6112384
:1015900029F1AAEFCA0ED11CE11CF11CC092540320
:1015A000D0925503E0925603F0925703CFEDD6E068
:1015B000D093E805C093E70585E00E946A11809109
:1015C000DE059091DF05892B21F089859A850E949F
:1015D0003D102B96B7E0CB30DB0751F7DF91CF9171
:1015E0001F91FF90EF90DF90CF900895CF93DF93FE
:1015F000EC010E949A2666507F4F8F4F9F4F609359
:101600005403709355038093560390935703CE0170
:101610000E94DF1D888180938003898180938103EC
:101620008A81809382038B81809383038C81809352
:1016300084038D81809385030E94E010DF91CF9118
:101640000C94FD18CF93DF93FC01DA01E9012281AC
:1016500030E0322F22278381282B848190E0982F3D
:1016600088274581842B322723273227309376061B
:10167000209375069827892798279093780680935A
:10168000770612962C91129730E0322F222713966C
:101690008C911397282B14968C91149790E0982F87
:1016A000882715964C91842B322723273227309395
:1016B0006E0620936D0698278927982790937006C9
:1016C00080936F062A8130E0322F22278B81282BCE
:1016D0008C8190E0982F88274D81842B32272327F7
:1016E000322730937206209371069827892798270E
:1016F0009093740680937306FB0182819381A48189
:10170000B58180935A0390935B03A0935C03B093DD
:101710005D03DF91CF910895AF92BF92CF92DF9298
:10172000EF92FF920F931F93CF93DF93CDB7DEB766
:1017300068970FB6F894DEBF0FBECDBFCB016A012C
:1017400059010E94F60A25EA32E03A832983F7011B
:1017500082819381A481B5818B839C83AD83BE8379
:1017600038872F83F80182819381A481B58189878D
:101770009A87AB87BC873E872D87F501828193814D
:10178000A481B5818F87988BA98BBA8B3C8B2B8BCF
:10179000F60182819381A481B5818D8B9E8BAF8B65
:1017A000B88F9E012F5F3F4FAE01495F5F4FBE0173
:1017B000635F7F4FCE0143960E94220B68960FB65F
:1017C000F894DEBF0FBECDBFDF91CF911F910F9177
:1017D000FF90EF90DF90CF90BF90AF9008956F9201
:1017E0007F928F929F92AF92BF92CF92DF92EF92B1
:1017F000FF920F931F93CF93DF93CDB7DEB76E9712
:101800000FB6F894DEBF0FBECDBF6C015B017A014D
:101810004901380100E02FEF4FEF6FEFCE014996FD
:101820000E94FC2925EA32E03A8329838B8D9C8D26
:10183000AD8DBE8D8B839C83AD83BE8338872F8314
:10184000F30182819381A481B58189879A87AB87CF
:10185000BC873E872D87F40182819381A481B58165
:101860008F87988BA98BBA8B3C8B2B8BF70142818E
:101870005381648175814D8B5E8B6F8B788FCE0128
:1018800001967C018E01095F1F4F9E01235F3F4F30
:10189000AE014D5E5F4FB501C6010E948C0B6E9686
:1018A0000FB6F894DEBF0FBECDBFDF91CF911F9171
:1018B0000F91FF90EF90DF90CF90BF90AF909F90EF
:1018C0008F907F906F900895CF92DF92EF92FF926A
:1018D0000F931F93CF93DF93CDB7DEB768970FB603
:1018E000F894DEBF0FBECDBF6B017901DA0112960D
:1018F0004D915D916D917C9115974D8B5E8B6F8BAA
:10190000788FA5EAB2E0BA83A98321E0288F0D89F8
:101910001E892F89388D0B831C832D833E83B887C6
:10192000AF83F701028113812481358109871A87EA
:101930002B873C87BE87AD874F87588B698B7A8B07
:101940008E010F5F1F4F9E01295F3F4FAE01435F26
:101950005F4FB6010E94EF0B68960FB6F894DEBF9A
:101960000FBECDBFDF91CF911F910F91FF90EF90F0
:10197000DF90CF9008950F931F93CF93DF93CDB750
:10198000DEB762970FB6F894DEBF0FBECDBFDB01A6
:10199000FA0142815381648175814F87588B698B2D
:1019A0007A8BE5EAF2E0FA83E98321E02A8B0F855E
:1019B000188929893A890B831C832D833E83F887F4
:1019C000EF8349875A876B877C879E012F5F3F4F44
:1019D000AE01495F5F4FBD010E94640C62960FB675
:1019E000F894DEBF0FBECDBFDF91CF911F910F9155
:1019F0000895FB0141505109460F571FE417F507A1
:101A000078F4208130E0322F22276181260F311DAA
:101A1000820F931F8217930708F401963296EECF38
:101A2000E417F50751F4208130E0322F2227820F8E
:101A3000931F8217930708F40196089544E150E03C
:101A400067E876E080E090E00E94F90C009711F0E2
:101A50000C945B188FEF9FEF08950F931F93CF9314
:101A6000DF93182FC0918A06D0E0649720918906F1
:101A700030E0322F2227C20FD31F48E050E063E945
:101A800076E0CE01810F911D0E94F90C113131F0E9
:101A90000091A706069506950C7301C008E010E0BA
:101AA000A8016BE976E00E94F90C0C171D0750F4B1
:101AB0009E01201B310BA8014E5D5F4F60916003BA
:101AC0000E947E1E009731F0DF91CF911F910F9100
:101AD0000C945B188FEF9FEFDF91CF911F910F91C7
:101AE00008950C941E0D86E00C942D0D81E10C944C
:101AF0002D0D0F9300E020E040E060E082E693E0EF
:101B00000E94FC2988E593E00F910C94F2290F9331
:101B100000E020E040E060E088E693E00E94FC29DD
:101B20000F910895DC01ED91FC91008CF18DE02D79
:101B30000994CF93DF931F92CDB7DEB76983DC01A1
:101B4000ED91FC910280F381E02D41E050E0BE0177
:101B50006F5F7F4F09950F90DF91CF910895CF93DD
:101B6000DF931F92CDB7DEB7DC01ED91FC91008CC5
:101B7000F18DE02D41E050E0BE016F5F7F4F099590
:101B8000181619061CF4898190E002C08FEF9FEFB0
:101B90000F90DF91CF910895EF92FF920F931F93D3
:101BA000CF93DF93EC017B018C859D85892B41F4DC
:101BB00060E070E080E090E00E940C119D878C87CF
:101BC0000C851D850115110569F0C7010E945B1880
:101BD000F80195838483EC85FD852E96D287C18795
:101BE00081E001C080E0DF91CF911F910F91FF90C4
:101BF000EF900895DC011C96ED91FC911D973097B4
:101C000021F0868197810C945B1880E090E0089524
:101C1000CF93DF93EC01EC85FD853097A9F0158219
:101C20001482128611861D861C8689890E947A1F5D
:101C300088890E947A1F8A890E947A1F2E9686E0E0
:101C4000FE0111928A95E9F7DF91CF910895CF9324
:101C5000DF93EC010E94230A89890E947A1F198A66
:101C6000DF91CF910895CF92DF92EF92FF920F9381
:101C70001F93CF93DF9300D000D000D0CDB7DEB755
:101C80007C016B01CA014D839E830E94230AD60109
:101C900012960D911D912D913C9115978D819E81EC
:101CA000012B022B032B99F1009789F1F601228178
:101CB00030E0322F22274381242B3227232732275B
:101CC0003A832983248130E0322F22274581242B37
:101CD0003227232732273C832B83D7011C960D9173
:101CE0001C911D970115110591F10E945B18F801D7
:101CF00097838683D7011C96ED91FC911D9789816E
:101D00009A81918380838B819C8193838283F70165
:101D100084859585892BC1F08289811115C086E063
:101D200096E00E94DB1ED70152968C9352972AE2CE
:101D300030E01F963C932E931E9721E090E0811196
:101D400001C020E0822F18C080E090E015C00E9402
:101D50005B18BC01CE0101960E940C11F70195871A
:101D60008487009789F39701225F3F4FDC011A9621
:101D70003C932E931997CBCF26960FB6F894DEBFDF
:101D80000FBECDBFDF91CF911F910F91FF90EF90CC
:101D9000DF90CF900895CF93DF93EC01FB019A0180
:101DA0008A89882361F06E857F85AF010E94A21C1D
:101DB0002E853F85280F391F3F872E8702C080E080
:101DC00090E0DF91CF910895CF93DF93EC010E94D3
:101DD000230A89890E947A1F8889898B188ADF9152
:101DE000CF910C94E71ACF93DF93EC010E94230A62
:101DF0008989DF91CF910C94E71A0F931F93CF93AA
:101E0000DF931F92CDB7DEB78C010E94230AF80141
:101E10008189882371F021E030E0AE014F5F5F4F90
:101E200060E070E00E94901C019719F4898190E0B5
:101E300002C08FEF9FEF0F90DF91CF911F910F9115
:101E40000895EF92FF920F931F93CF93DF93EC01CE
:101E50008B017A010E94230A89898823C1F09701A6
:101E6000A80160E070E00E94901C8C0189890E94AA
:101E7000E71A0817190729F489890E947A1F198A15
:101E800004C0B80189890E949C1FC80102C080E07B
:101E900090E0DF91CF911F910F91FF90EF90089507
:101EA0000F93CF93DF93EC01DB011C96ED91FC9136
:101EB0001D97309739F022810381608141810E9412
:101EC000FC2902C00E94F229CE01DF91CF910F912F
:101ED0000895FC011382128248EE53E060E070E046
:101EE000448355836683778383E192E09183808383
:101EF000158614863E9686E0DF011D928A95E9F7E5
:101F00000895CF92DF92EF92FF920F931F93CF939A
:101F1000DF93CDB7DEB7A8970FB6F894DEBF0FBE3C
:101F2000CDBF7C018B016A01CE0101960E94F2298E
:101F3000CE0109960E94690FCE0183960E94F22974
:101F400063E573E0CE014D960E94DA09BE01635E3F
:101F50007F4FCE0101960E947905AE014D5D5F4F26
:101F6000B801CE0101960E94EC0781309105C1F4C1
:101F7000D701ED91FC910088F189E02D85EA92E08E
:101F80009E8F8D8F0DA11EA12FA138A50F8F18A395
:101F900029A33AA3A601BE01635E7F4FC70109953D
:101FA000A8960FB6F894DEBF0FBECDBFDF91CF91DC
:101FB0001F910F91FF90EF90DF90CF9008950F93B6
:101FC0001F93CF93DF93E091E705F091E805C1857A
:101FD000D285209709F44CC08091E60581FF2DC081
:101FE0008A8181112AC080919B0690919C069783DB
:101FF000868380919306909194069183808380914B
:102000009506909196069383828380919F06909186
:10201000A0060E945B1808970E94DB1E8A83882313
:1020200061F00E94E71A8C012AE230E040916103DE
:1020300060E070E08A810E94931D8091E60583FF35
:1020400017C08D818823A1F08C81809360038AE280
:1020500080935F03688179816A5271098091E905F3
:102060009091EA05DF91CF911F910F910C945F1829
:10207000DF91CF911F910F910895CF93DF93EC01E2
:102080000E94F0198091DE059091DF0520915E039A
:102090008A9721F4109260032D7F03C01D821C8259
:1020A000226020935E03DF91CF910C94EC09CF93D3
:1020B000DF93EC018C859D85892B19F480E090E0FD
:1020C00020C08A898823D1F391E09B8B4E855F8560
:1020D00060E070E00E94AF1F8C859D859093E805BD
:1020E0008093E70585E00E946A118091DE0590915A
:1020F000DF05892B19F3CE010E960E943D1081E079
:1021000090E0DF91CF9108950F9300E020E040E050
:1021100060E08EE693E00E94FC290F910895FC0197
:102120005381560F5093E505872F99274281480F19
:102130004093E405A181A093E305E081E093E205EB
:10214000242F30E02817390748F481E08A0F809364
:10215000E305811103C0EF5FE093E205852F90E076
:1021600077278617970788F44F5F4093E40541115E
:102170000CC08091E3058F5F8093E305811105C05A
:102180008091E2058F5F8093E20508952091EB0531
:102190003091EC05BC01C90108960E948F10E091B6
:1021A000EB05F091EC058091E20580878091E305D5
:1021B00081878091E40582878091E5058387089572
:1021C00080E0E82FF0E0EE0FFF1FEB59F94F11828E
:1021D00010828F5F8430A8F380E09EE1989FF00129
:1021E0001124E351FA4F118E8F5F8430B8F380E0F1
:1021F00094E0909379038093780380E09BE0989F2C
:10220000F0011124E152F94F158214828F5F84305E
:10221000B0F3809377030895CF93209178033091A2
:1022200079032F5F3F4F21154DE7340710F020E071
:1022300030E1522F432FE3EEF6E0C0E0C43041F02E
:10224000A081B181CF5F3B96A417B507B9F7E9CF5D
:10225000309379032093780340E05BE04430A0F4AE
:10226000A1E0A40F549FF0011124E152F94F248101
:102270003581232B39F440937703309741F480E084
:1022800090E026C04A2FEACF40937703F8CF209101
:10229000780330917903322723273227358324832B
:1022A00077836683009729F4108211821282138249
:1022B0000CC0DC012D913C91119731832083129643
:1022C0008D919C9113979383828380E48087CF01C3
:1022D000CF9108951F93CF93DF93C091EB05D091D9
:1022E000EC05843009F4CEC12FEA36E03093EA05DC
:1022F0002093E9053093E1052093E005833059F4FC
:10230000898D8F70833009F0CCC688899989892B93
:1023100009F0C7C67FC0823009F080C080917D037C
:102320008F5F80937D03811113C080917C038F5F49
:1023300080937C0381110CC080917B038F5F80931D
:102340007B03811105C080917A038F5F80937A03AC
:102350001092DF051092DE051092DE061092DD0667
:10236000298D822F8D7F853041F48A8D8F5F8A8FF2
:10237000883709F096C6198E94C6222309F491C6AF
:1023800088899989892B09F441C08A8D9FEF980F1C
:102390009A8F811186C68B8D883031F09FEF920F16
:1023A000923048F4853039F4198E80E88093E60540
:1023B0000E94C1082CC5853038F493E0082E01C076
:1023C000990F0A94EAF701C090E39A8F8F5F8B8F81
:1023D000822F8F708330A1F048F4813009F441C31B
:1023E000823009F05EC61092A8063EC3863009F41A
:1023F000ADC4883009F4AAC4843009F052C6A6C41A
:1024000084E08093E6050E94C10833C52F70233015
:1024100009F047C688E08093E605EEC4853019F5DB
:10242000E091E705F091E80584819581892B09F415
:1024300038C61092EC051092EB0583EA96E0909373
:10244000EA058093E9059093E1058093E0051092F9
:10245000DE061092DD061092DF051092DE0588E0A0
:102460008093E6050DC180918706853409F019C671
:102470008091890690E0982F882720918A06820F04
:10248000911D2091DE053091DF052817390708F4EA
:1024900008C69093DF058093DE0580918D068F73CB
:1024A00009F0FFC580918E068111FBC580917506EC
:1024B00090917606009731F4209177063091780656
:1024C000232B21F140919006209197063091980698
:1024D000413161F42F3F1FEF310741F440919906DC
:1024E00050919A064F3F5F4F09F456C0281739079D
:1024F00009F0D7C52091990630919A068091770608
:10250000909178062817390709F0CBC50E94710D04
:10251000019609F0C6C580919006863009F415C170
:102520008131D1F1813009F0BCC580919B068830A2
:1025300009F0B7C510929B0680919D0690919E066A
:10254000873FCFEF9C0710F0099601C00896909343
:102550009E0680939D068091930690919406909399
:102560009806809397068091950690919606909391
:102570009A068093990680917506909176069093BD
:1025800094068093930680917706909178069093B5
:1025900096068093950689C58091DE059091DF05AA
:1025A0004C979093DF058093DE0583EA96E0909345
:1025B000EA058093E9058091A1069091A206892BF6
:1025C00099F420919D0630919E0640919B06509172
:1025D0009C066091930670919406A0919506B09127
:1025E0009606EFEDF6E00BC00E94760D019609F01D
:1025F00058C5E7CF84819581009731F43B9687E0F9
:10260000EB30F807B8F349C528173907B9F78681C1
:102610009781009719F04817590781F780819181B8
:10262000009729F4C281D381CD2B49F410C08F3F8C
:10263000CFEF9C0721F4C281D381219641F0681726
:102640007907E1F682819381A817B907B9F6F0936B
:10265000E805E093E7051092EC051092EB0582E0A7
:102660008093E60583EA96E09093EA058093E90576
:102670009093E1058093E0051092DE061092DD064E
:102680000E94DF0F8091DD069091DE06009709F42D
:1026900008C59C01245E3F4F3093DF052093DE0583
:1026A0003093890620938A06E091E705F091E805CA
:1026B000208520938F0621E1209390060896982785
:1026C000892798279093A00680939F061092A206D0
:1026D0001092A1068481958190939C0680939B061D
:1026E0008681978190939E0680939D0680917506C2
:1026F0009091760690939406809393068091770646
:1027000090917806909396068093950680819181AA
:1027100090939806809397068281938190939A066E
:10272000809399068FEA96E09093EA058093E905F5
:102730000E94760D80959095009711F48FEF9FEF92
:102740009093A2068093A10685C40E94730D019602
:1027500009F0A7C480919D0690919E0620919B064A
:1027600030919C0640919306509194066091950695
:1027700070919606E6E0F6E0CDEED5E010811123EB
:10278000A9F0AC81BD818A179B0781F4AE81BF811E
:102790002A173B0759F4A881B9814A175B0731F41E
:1027A000AA81BB816A177B0709F475C16E967E9674
:1027B00016E0C536D10711F72091A8062F732230F5
:1027C000E1F4909375038093740340E0443098F4EF
:1027D000E42FF0E0EE0FFF1FEB59F94F208131811C
:1027E0004F5F8217930791F71092770320E0C0E0C4
:1027F000D0E03EE17EC0409377038091A80682FD41
:1028000050C484E18093A80688E290E09093DF05AD
:102810008093DE0580E58093A7068091A2069091C3
:10282000A6069093A2063091A1069091A5069093DA
:10283000A1063093A5062091A0069091A40690933E
:10284000A0062093A40690919F0690937703409151
:10285000A30640939F069093A3068F5F8093A606DE
:1028600081110FC081E0830F8093A506811109C0FB
:1028700081E0820F8093A406811103C09F5F909333
:10288000A30680919B0690919C069093750380937C
:10289000740320919D0630919E0630939C062093F0
:1028A0009B0690939E0680939D068091930690913F
:1028B0009406909398068093970680919506909140
:1028C000960690939A06809399068091750690914A
:1028D0007606909394068093930680917706909164
:1028E0007806909396068093950699C3473099F0A1
:1028F0002F5F2430F0F4822F90E0389FF001399F51
:10290000F00D1124E351FA4F418D4111EFCF209387
:102910007703EF0110C0209721F0528D4A8D4517A3
:1029200038F7389FE001399FD00D1124C351DA4F99
:10293000DFCF20937703209709F4B3C3D093EC053E
:10294000C093EB0583E08A8F888F1E8A84E08F8B8B
:102950001B8E80919D0690919E069D838C83809115
:102960009B0690919C069F838E8380919306909105
:1029700094069983888380919506909196069B830F
:102980008A8381E0898F80917A038C8780917B0391
:102990008D8780917C038E8780917D038F8781E076
:1029A00090E0998B888B8091A2068B878091A106FD
:1029B0008A878091A006898780919F06888781E019
:1029C00090E00E94C6108091A706282F207F30E05B
:1029D000213531050CF445C082958F7090E0059744
:1029E000880F991F880F991F3091760320E0E22FFE
:1029F000F0E0E817F9078CF5E758F94F36A93111DF
:102A000005C020937703109276032BC0313011F468
:102A10002F5FEDCF3230E1F447A94430C9F4209361
:102A200077033093760380AD90E0982F882721AD0F
:102A3000822B9093750380937403813022E0920778
:102A400010F080E092E09B8B8A8B9D8B8C8B09C071
:102A500047A9442311F0240FCACF20937703309362
:102A6000760380E18093A8068091A8068260809317
:102A7000A80682E08093AF0694E09093B00680931E
:102A8000B1061092B2068CE290E09093DF0580933D
:102A9000DE0580E672C2D093EC05C093EB05109280
:102AA000E6053091A80632FF03C0198E80E20EC2FF
:102AB0002091A70622952F70220F220F20937703D3
:102AC0008091DE059091DF054497821B91099093D8
:102AD000DF058093DE051F70123021F4232F2F7342
:102AE0002231C9F0892B19F4832F8370A1F09091C2
:102AF0009F068885981337C29091A0068985981300
:102B000032C29091A1068A8598132DC29091A20697
:102B10008B85981328C234FF4AC06889798961156A
:102B2000710509F444C0CE010C960E948F103091BB
:102B3000A3068091E20538133AC02091A406809143
:102B4000E305281334C09091A5068091E4059813FD
:102B50002EC08091A6064091E505841328C03C87CD
:102B60002D879E878F878B8D81111AC02E89888D26
:102B70009A8D891B922F969596959695891B280F6D
:102B80002E8B87FD81959F89392F36953695931B1E
:102B9000980F9F8B822F869586958695890F888FB3
:102BA00081E08093E605888D8A8F198A188A498D7D
:102BB000842F8F7090E0FC013197E830F10508F028
:102BC00070C2EC5CFF4F0C94762E8091E60580FF7E
:102BD00068C283E0898F80E48093E605198A188AA9
:102BE0008091DE059091DF05009709F401C122E490
:102BF0002093E6050E94C610FBC08091E60580FF89
:102C000070C08091A8068F73823109F06AC08091EC
:102C1000A706282F207F30E0213531050CF445C070
:102C200082958F7090E00597880F991F880F991FE4
:102C30003091760320E0E22FF0E0E817F9078CF5F9
:102C4000E758F94F36A9311105C020937703109248
:102C500076032BC0313011F42F5FEDCF3230E1F429
:102C600047A94430C9F4209377033093760380ADAD
:102C700090E0982F882721AD822B90937503809345
:102C80007403813042E0940710F080E092E09B8B67
:102C90008A8B9D8B8C8B09C047A9442311F0240F8C
:102CA000CACF209377033093760383E0898F809196
:102CB0009F0688878091A00689878091A1068A87D0
:102CC0008091A2068B8781E090E00E94C61082E48A
:102CD0008093E605198A188A1092DF051092DE05A6
:102CE00087C080E28093E6050E94C108E091EB0571
:102CF000F091EC05118E81CD8091A80680FF28C04F
:102D000044FD26C088899989892B09F0CAC1809120
:102D1000DE059091DF0501960E94C6102091E60520
:102D2000822F80618093E6058091DE059091DF051A
:102D3000892B19F022612093E6050E94C10881E0E9
:102D400090E0998B888B88E0898F1B8E81E10CC184
:102D500085FF1CC08091AD0690E0982F88272091B8
:102D6000AE06822B2091E9053091EA05280F391F24
:102D70003093EA052093E9052091DE053091DF05C7
:102D8000281B390B3093DF052093DE058091DE058B
:102D90009091DF05009749F044FD07C02091E605BA
:102DA00022602093E6050E94C6108091A90690E05B
:102DB000982F88272091AA06820F911D9093750362
:102DC000809374032C893D892817390710F0892BCB
:102DD00021F43093750320937403809174039091D0
:102DE00075039B8B8A8B8091E605837009F459C12A
:102DF0001092DE061092DD060E94C1088091E60561
:102E000085FF07C01092DE061092DD06198E84E160
:102E1000ABC084FF0AC01092DE061092DD0681E08E
:102E200090E0998B888B84E08FCF2091DD063091E4
:102E3000DE0621153105E1F080FF02C0198A188AEB
:102E400088899989009781F48A899B8982179307D9
:102E500020F49093DE068093DD068091DD0690914C
:102E6000DE06998B888B04C09093DE068093DD0686
:102E70001B8E8091E0059091E1059093EA05809387
:102E8000E9058091DD069091DE06892B59F088894D
:102E90009989009739F088969093DF058093DE0535
:102EA00088E10BC08091E60581FFFBC088E290E0DD
:102EB0009093DF058093DE0580E18093A8065CC0D7
:102EC0008091E60580FFEDC0198E80E18093E605D4
:102ED0000E94C108E6C08091DE059091DF05009751
:102EE00011F00E94C6109091A8068091E60590FF0F
:102EF0000BC080FF06C087E0898F1A8E198A188A56
:102F000019C086E0898F16C080FF1EC085E0898FBA
:102F1000198A188AC6C08091DE059091DF05009756
:102F200011F00E94C6108091A80680FF0DC087E0B6
:102F3000898F1A8E81E090E00E94C61080E1809314
:102F4000E6050E94C1080FC08091DE059091DF0563
:102F5000892B49F4A6C08091E60580FFA2C087E0D6
:102F6000898F1A8E9EC080E18093A80688E290E047
:102F70009093DF058093DE0580E58093A706888522
:102F80008093A30689858093A4068A858093A506ED
:102F90008B858093A6068C8580939F068D85809374
:102FA000A0068E858093A1068F858093A20686E079
:102FB000809390068C819D8190939C0680939B06C4
:102FC0008E819F8190939E0680939D0680917506C9
:102FD000909176069093940680939306809177065D
:102FE00090917806909396068093950688819981B2
:102FF00090939806809397068A819B8190939A0676
:1030000080939906898D84FF05C01092AA061092BC
:10301000A90605C082E08093A9061092AA0680E462
:1030200080938F068091DE059091DF05909389064D
:1030300080938A061092AE061092AD061092AC06EE
:103040001092AB060E94730D809590959093AC06FC
:103050008093AB0685E480938706109288061092D1
:103060008E0610928D0680917E0390917F030196CB
:1030700090937F0380937E0390938B0680938C06BE
:1030800010929206109291060E94710D8095909573
:10309000909392068093910608C0F093E805E09320
:1030A000E7051092DF051092DE051092E605DF912C
:1030B000CF911F91089598278927982708959C01FB
:1030C000AB017093DE066093DD061616170654F406
:1030D0008091E0059091E1052817390719F0B901B1
:1030E0000C94AD300895FF920F931F93CF93DF930D
:1030F000DC01FB011092890360E07BE0683010F591
:10310000769FE0011124C257DC4F288139812115B7
:103110003105B1F08A819B81009791F04D915C91CE
:1031200011974217530761F412962D913C91139712
:103130002817390729F460938903DE0114964FC0DC
:103140006F5FDCCF20E03BE0283090F4329FE0015D
:103150001124C257DC4F88819981892B39F48A81E7
:103160009B81892B19F42093890330C02F5FECCF0A
:1031700020938903283051F500918703802F90E038
:1031800010E070E060E02BE0F22E683098F4F69EDC
:10319000E0011124C257DC4FCA85AC014C1B510918
:1031A000212F30E0241735071CF4762F102F1C1B1D
:1031B0006F5FEBCF1093860370938803709389033E
:1031C0008BE0789FE0011124C257DC4F4D915D9157
:1031D0006D917C91DE014D935D936D937D9386E0BF
:1031E00001900D928A95E1F7809187038A87DF919C
:1031F000CF911F910F91FF900895109289039BE04A
:1032000080918903883068F4989FF0011124E25777
:10321000FC4F10821182128213828F5F8093890388
:10322000EFCF08958091DE059091DF050E97909382
:10323000DF058093DE0580917506909176062091DA
:10324000930630919406822793272091710630913E
:10325000720682239323892BC1F480917706909183
:103260007806209195063091960682279327209123
:1032700073063091740682239323892B31F46FE710
:1032800076E083E996E00C94731808958091DE054A
:103290009091DF051092DF051092DE058A9708F401
:1032A000089580918D0690918E06811521E09207F8
:1032B00029F08115924009F476C0089520919F0667
:1032C0003091A006809175069091760628173907EF
:1032D00009F085C02091A1063091A2068091770661
:1032E000909178062817390709F079C06FE876E0E1
:1032F00085E996E00E94731880E092E090938E0634
:1033000080938D0686E0EFE8F6E0A9E9B6E001904B
:103310000D928A95E1F786E0E0E8F3E0AFE8B6E0E9
:1033200001900D928A95E1F786E0E0E8F3E0AFE7DF
:10333000B6E001900D928A95E1F786E0E9E9F6E0C2
:10334000A9E7B6E001900D928A95E1F78091950684
:10335000909196069093A00680939F068091970681
:10336000909198069093A2068093A106809175068D
:1033700090917606909396068093950680917706B5
:1033800090917806909398068093970688E096E04F
:1033900090938606809385068AE290E09093DF05FD
:1033A0008093DE05089520919F063091A0068091BC
:1033B0007506909176062817390789F42091A106A1
:1033C0003091A206809177069091780628173907E8
:1033D00031F46FE876E085E996E00C94731808956F
:1033E00020919706309198062F3F4FEF340751F404
:1033F0008091990690919A06019621F486E0E3E384
:10340000F2E0C6C0809175069091760682279327D8
:10341000409171065091720684239523892B91F473
:103420004091990650919A0680917706909178067E
:1034300084279527609173067091740686239723DD
:10344000892B89F080916D0690916E0690938B0385
:1034500080938A0380916F069091700690938D03FC
:1034600080938C0308C030938B0320938A0350937E
:103470008D0340938C0380918A0390918B0320915C
:103480008C0330918D0360E07BE0683090F4769F90
:10349000F0011124E257FC4F4081518184179507B8
:1034A00031F4428153812417350709F46DC06F5FF1
:1034B000ECCF60938903683009F068C046E050E0C3
:1034C0006FEF70E089E796E00E94B63026E0E9E908
:1034D000F6E0DF01422F1D924A95E9F7E0E8F3E0BC
:1034E000AFE7B6E0822F01900D928A95E1F7E0E810
:1034F000F3E0AFE8B6E0822F01900D928A95E1F7F4
:1035000080918A0390918B039093A00680939F06ED
:1035100080918C0390918D039093A2068093A106D5
:103520008091750690917606909396068093950605
:1035300080917706909178069093980680939706ED
:1035400080E091E090938E0680938D06909388069C
:103550008093870688E090E090938A06809389069E
:1035600020938B0684E080938C0688E096E090930D
:103570008606809385068FEA96E09093EA0580930D
:10358000E9058AE290E01EC060938903349686E0E4
:10359000A9E7B6E001900D928A95E1F786E0E0E8B0
:1035A000F3E0AFE7B6E001900D928A95E1F788E08D
:1035B00090E090938606809385068091DE05909139
:1035C000DF050E969093DF058093DE05089588232E
:1035D00081F08F3F29F48091E8039091E9030895E9
:1035E00095E0899FF0011124E351FC4F8281938182
:1035F000089580E090E00895CF93DF93D82FC62FF1
:1036000060E08AE00E9498279C2F9F719D2B9EBDB1
:103610000DB407FEFDCF1EBC0DB407FEFDCFC7FDE8
:1036200008C061E08AE00E9498278EB5DF91CF91B3
:1036300008951EBC0DB407FEFDCFF3CF0F931F936B
:10364000CF93DF931F92CDB7DEB7182F062F60E020
:103650008AE049830E949827602F6F71612B6EBDAD
:1036600049810DB407FEFDCF4EBD0DB407FEFDCF61
:1036700061E08AE00F90DF91CF911F910F910C9440
:1036800098270F931F93CF93DF938C01EB0160E09A
:103690008AE00E9498278AE38EBD0DB407FEFDCF15
:1036A0000C0F1D1FC017D10739F01EBC0DB407FE4B
:1036B000FDCF8EB58993F6CF61E08AE0DF91CF919F
:1036C0001F910F910C9498270F931F93CF93DF9323
:1036D0008C01EB0160E08AE00E9498278AE78EBDAA
:1036E0000DB407FEFDCF0C0F1D1FC017D10731F021
:1036F00089918EBD0DB407FEFDCFF7CF61E08AE062
:10370000DF91CF911F910F910C9498271F93CF9326
:10371000DF93182F1076C12FD0E02091140130E0F4
:10372000C217D30789F043E06FE180EA0E941E1BB5
:10373000AE0185E0559547958A95E1F76FE180E800
:103740000E941E1B10931401DF91CF911F910895C9
:10375000CF93DF931F92CDB7DEB7682F69830E94A6
:10376000861B698180E00F90DF91CF910C94FC1A49
:103770001F93CF93DF931F92CDB7DEB7182F6983C6
:103780000E94861B4981612F80E40F90DF91CF91C9
:103790001F910C941E1B1F93CF93DF9300D0CDB7C6
:1037A000DEB7182F69837A830E94861B4981612FB7
:1037B00080E40E941E1B61E0610F7A81472F80E444
:1037C0000F900F90DF91CF911F910C941E1B609171
:1037D000EB037091EC036115710519F061507109EB
:1037E00002C06FEF77E08CE00C94CB1B0C94E71BCE
:1037F000FF920F931F93CF93DF9389E30E94A81B3F
:10380000882309F44CC06091EB037091EC03EB0149
:103810002696C11588E0D80710F0CF5FD74080E02A
:103820000E94CB1B60E08AE30E94FC1A90E0909318
:10383000EC038093EB0360E08AE30E94FC1A209182
:10384000EB033091EC03382B3093EC032093EB0324
:1038500060E08AE30E94FC1A082F60E08AE30E947D
:10386000FC1A182F60E08AE30E94FC1AF82E40E44C
:103870006EE180E80E941E1BF7FE0FC0D093E703A5
:10388000C093E603202F30E0312B245031093093D0
:10389000E9032093E8038FEF03C00E94E71B80E059
:1038A000DF91CF911F910F91FF900895EF92FF92BA
:1038B0000F931F93CF93DF938B017A018F3FC9F052
:1038C00025E0829FE0011124C351DC4F02C0C6EE07
:1038D000D3E068817981600F711F80E00E94CB1B6B
:1038E0008A819B81801B910BE816F90690F4C70131
:1038F00010C08091E6039091E703860F971F811512
:1039000028E0920720F3BC016F5F7740C6EED3E05A
:10391000E4CFDF91CF911F910F91FF90EF90089529
:103920000F931F93CF93DF938A01A9010E94561C26
:10393000EC01B8010E94411BCE01DF91CF911F9194
:103940000F910895CF92DF92EF92FF920F931F9302
:10395000CF93DF938B016A01790195E0899FE001A4
:103960001124C351DC4F68817981600F711F82E09F
:103970000E94CB1B0A80DB81C02DC01BD10BEC1633
:10398000FD0608F4E701B601CE010E94641BCE01DA
:10399000DF91CF911F910F91FF90EF90DF90CF902B
:1039A0000895BC0180E00E94CB1B60E08AE00E9489
:1039B00098278AE38EBD0DB407FEFDCF1EBC0DB463
:1039C00007FEFDCF61E08AE00E9498278EB508953A
:1039D000CF93C62FBC0182E00E94CB1B60E08AE03F
:1039E0000E9498278AE78EBD0DB407FEFDCFCEBD9D
:1039F0000DB407FEFDCF61E08AE0CF910C949827CB
:103A0000FF920F931F93CF93DF9395E0899FF0016F
:103A10001124E351FC4FC081D18121970281138190
:103A20000C0F1D1FCE010E94D11CF82E882321F0FF
:103A300060E0CE010E94E81CBE0184E00E94CB1B26
:103A4000B80186E00E94CB1B48E06FE180E80E944D
:103A50001E1B8CE10E94A81B81FF05C048E06FE19E
:103A600080EA0E941E1BFF2049F06F2DCE01DF91DE
:103A7000CF911F910F91FF900C94E81CDF91CF9193
:103A80001F910F91FF900895CF92DF92EF92FF92D6
:103A90000F931F93CF93DF937C01EB0141305105CE
:103AA00079F4CB010E94D11C682FC701DF91CF911F
:103AB0001F910F91FF90EF90DF90CF900C94E81C36
:103AC0006A01C60ED71E86010150110980E10E94CD
:103AD000CB1BB70184E10E94CB1BC115D84030F449
:103AE000011588E0180710F00F5F1740B80182E158
:103AF0000E94CB1B40E16FE180EA0E941E1B40E266
:103B00006FE180E80E941E1B6FE180E00E94FC1ABA
:103B100085FDFACFDF91CF911F910F91FF90EF902C
:103B2000DF90CF9008950F931F93CF93DF93EB0116
:103B3000E5E0E89FD0011124A351BC4F4F3FC9F0ED
:103B4000E49FF0011124E351FC4F02C0E6EEF3E0E4
:103B500060817181620F731F8D919C91A8018C0F00
:103B60009D1F0E94441DDF91CF911F910F910C94D6
:103B7000E71BE091E603F091E703E20FF31FE11585
:103B800088E0F80718F3BF016F5F7740E5CFCF9368
:103B9000DF93EB01682F84ED0E94B81BBE0186ED18
:103BA0000E94CB1B8AEE0E94A81B80FF05C08FE0FD
:103BB00090E00E94F126F6CFDF91CF910895CF9348
:103BC000DF93EC010E94CC1E61E08AE00E945F2737
:103BD00061E08AE00E94982761E08BE00E945F2705
:103BE00061E08DE00E945F2760E08CE00E945F272B
:103BF00061E08AE00E945F2760E08BE00E949827E6
:103C000060E08DE00E94982780E58CBD8DB58160D5
:103C10008DBD4FEF60E08FEF0E941E1B62E370E0EE
:103C200080E090E00E94C9261092EC031092EB0312
:103C300060E070E088E00E94CB1B60E070E08CE008
:103C40000E94CB1B6FEF77E08AE00E94CB1B61EBF9
:103C500088E30E94B81B6FE370E388E20E94CB1BED
:103C600069EF77EF80E30E94CB1B6DE070E080ECA2
:103C70000E94CB1B42E362EC80E80E941E1B62E1C3
:103C80007CE086EC0E94CB1B62E184EC0E94B81BB6
:103C90006CED75E08AEC0E94CB1B688184EE0E947B
:103CA000B81B698185EE0E94B81B6A8182EE0E9472
:103CB000B81B6B8183EE0E94B81B6C8180EE0E9462
:103CC000B81B6D8181EE0E94B81B60E071E080E15D
:103CD0000E94C71D8FE10E94861B40EC6BE180E8CB
:103CE0000E941E1B44E06FE180E80E941E1B66E7F5
:103CF00074E084E1DF91CF910C94C71D0F931F9363
:103D0000CF93DF93EC01862FBA01A9010E94561CC4
:103D10008C010150110960E08AE00E9498278AE333
:103D20008EBD0DB407FEFDCF20E030E02017310737
:103D3000C0F41EBC0DB407FEFDCF8EB590E0982FE9
:103D400088271EBC0DB407FEFDCF4EB5840F911D14
:103D5000C80FD91FC817D90708F421962E5F3F4F07
:103D6000E5CF2017310771F41EBC0DB407FEFDCF5F
:103D70008EB590E0982F8827C80FD91FC817D9078C
:103D800008F4219661E08AE00E949827CE01DF9135
:103D9000CF911F910F910895EDEEF3E089E091E04E
:103DA000DF019C011D9221503040E1F781E098E055
:103DB000918380830895DF92EF92FF920F931F9378
:103DC000CF93DF937C014091ED035091EE0341507E
:103DD000584E80E098E1EDEEF3E000E0C0E0D0E086
:103DE00025E0D22E1481112341F0D19ED00111245F
:103DF000A351BC4F2D913C9101C09A01608171810A
:103E0000261B370B62817381261B370B2E153F054E
:103E100039F485E0089FE0011124C351DC4F49C00B
:103E2000E216F30648F42817390730F4D09EE00173
:103E30001124C351DC4FC901111107C02097C9F5E6
:103E4000CDEED3E085E0D82E1EC0D19EF001112426
:103E5000E351FC4F012FC6CF0A811B8188819981D4
:103E6000080F191FD29EE0011124C351DC4F688155
:103E700079810617170739F04A815B81C8010E94D2
:103E8000441D198308832C812111E6CF2091ED0375
:103E90003091EE0388819981281B390B8A819B819F
:103EA000281B390B2150384E2E153F0510F480E0A9
:103EB00019C0E2EFF3E081E022813381232B29F066
:103EC00035968F5F8533C1F7F2CF2A813B814881D8
:103ED0005981240F351F31832083F382E2829C8134
:103EE00094838C83DF91CF911F910F91FF90EF907E
:103EF000DF9008958823F9F0EDEEF3E025E094815A
:103F0000981311C095E0899FD0011124A351BC4F93
:103F100014968C911497848313961C921E92129778
:103F200014961C920895992331F0299FF0011124D1
:103F3000E351FC4FE4CF089595E0899FF0011124EF
:103F4000E351FC4F80819181860F971F918380837D
:103F500082819381861B970B93838283089595E0DA
:103F6000899FF0011124E351FC4F80819181860FDC
:103F7000971F918380835383428308950895FC01A2
:103F80008EEB9FE1928B818B768365831482108206
:103F900089E0818381E0828383830895CF93DF93D7
:103FA000EB0167E0CE010E94CA2491E02F818213C9
:103FB00090E0892FDF91CF910895EF92FF920F93B8
:103FC0001F93CF93DF93EC018B01E42E8D819E81B3
:103FD0000E94F823F12C41E0B8018D819E810E945E
:103FE0002D24882359F0FE1006C0B801CE010E948E
:103FF000CE1F811104C0F394EF1468F780E0DF91C5
:10400000CF911F910F91FF90EF900895EF92FF9243
:104010000F931F93CF93DF9300D0CDB7DEB77C0112
:104020008A01FC018581968169837A830E94D1226D
:1040300069817A81F701858196810E94CC2340E0D5
:104040006EEBF701858196810E946E23F7018581D1
:1040500096810E94B023F8018083F70185819681C3
:104060000E94B023F8018183F701858196810E9427
:10407000B023F8018283F701858196810E94B023E5
:10408000F8018383F701858196810E94B023F801AE
:104090008483F701858196810E94B023F80185838E
:1040A000F701858196810E94B023F8018683F7018C
:1040B000858196810E94B023F8018783F70185816D
:1040C00096810E94B023F8018087F701858196814F
:1040D0000F900F90DF91CF911F910F91FF90EF9074
:1040E0000C94D122CF93DF93EA010E94062068E06E
:1040F000CE010E94CA2491E02885821390E0892F86
:10410000DF91CF910895EF92FF921F93CF93DF93AA
:1041100000D0CDB7DEB77C01FC0185819681698333
:104120007A830E94D12269817A81F7018581968103
:104130000E94CC2340E064EBF701858196810E94C8
:104140006E23F701858196810E944323182FF70182
:10415000858196810E94D12281E0111180E00F902B
:104160000F90DF91CF911F91FF90EF900895CF9323
:10417000DF93CDB7DEB729970FB6F894DEBF0FBE39
:10418000CDBFFB0120812031D1F0AE014F5F5F4FE9
:104190000E947220882379F08D818F3351F018F4BA
:1041A0008F3169F008C08F3541F08F3721F48CE0F2
:1041B00007C08AE005C080E003C08BE001C089E051
:1041C00029960FB6F894DEBF0FBECDBFDF91CF9119
:1041D0000895FF920F931F93CF93DF93CDB7DEB770
:1041E00061970FB6F894DEBF0FBECDBF8C01FC0106
:1041F000858196810E94F823F801148241E0BE0176
:10420000665F7F4FF801858196810E942D24882367
:10421000D1F1BE01665F7F4FC8010E94CE1F882387
:1042200069F3F8018081811108C0BE01665F7F4F8C
:10423000C8010E948320811122C0AE014F5F5F4FF1
:10424000BE01665F7F4FC8010E940620F801F18021
:10425000BE01665F7F4FC8010E94B7208F1518F41A
:10426000F801818106C0BE01665F7F4FC8010E94D0
:10427000B720F801818384818F5F8483BFCF81E081
:10428000F8018083DACF61960FB6F894DEBF0FBED7
:10429000CDBFDF91CF911F910F91FF900895CF93E4
:1042A000DF93CDB7DEB729970FB6F894DEBF0FBE08
:1042B000CDBFAE014F5F5F4F0E94062081E0998124
:1042C000911101C080E029960FB6F894DEBF0FBEB1
:1042D000CDBFDF91CF910895CF92DF92EF92FF9201
:1042E0000F931F93CF93DF93EC018B01452BE1F0EC
:1042F0008B818823C9F08881811116C00E949A267B
:104300006B017C0160E070E0CE010E944F218111C1
:104310000BC00E949A266C197D098E099F096E3E7A
:1043200072408105910570F3F80180818A3049F06F
:104330008B3061F0893079F46EE570E080E090E0D8
:104340000EC06CEB70E080E090E009C067E771E0C0
:1043500080E090E004C06EEE72E080E090E0DF91DB
:10436000CF911F910F91FF90EF90DF90CF900C9421
:10437000C926CF93DF93EC018D819E810E94D122CB
:104380008D819E810E94F423488164E48D819E8109
:104390000E946E238A81882351F0BE016F5F7F4F98
:1043A00040E050E0CE01DF91CF910C946C21DF9181
:1043B000CF9108958F929F92AF92BF92CF92DF924A
:1043C000EF92FF921F93CF93DF93FB01EA01698184
:1043D00070E0762F66278881682B80818232B1F168
:1043E0008832A1F1803109F078C01F8175956795F9
:1043F000882777FD8095982F0E94652D20E030E07A
:1044000040E85EE30E94652C6B017C01612F70E047
:104410008E81681B7109882777FD8095982F0E94EF
:10442000652D4B015C01612F70E080E090E00E94FF
:10443000632D9B01AC01C501B4010E94CA2C9B01F4
:10444000AC01C701B6010E94662C43C08C818F333A
:1044500081F198F48F3109F040C093E0759567952C
:104460009A95E1F7882777FD8095982F0E94652D12
:1044700020E030E040E05FE32AC08F3569F08F37FD
:1044800061F5882777FD8095982F0E94652D20E0A3
:1044900030E040E85DE31BC075956795882777FDA0
:1044A0008095982F0E94652D20E030E040E05EE38B
:1044B0000EC07595679575956795882777FD8095EA
:1044C000982F0E94652D20E030E040E85EE30E94D6
:1044D000F12D562F472F382F292F652F742F832F1B
:1044E000922FDF91CF911F91FF90EF90DF90CF90AF
:1044F000BF90AF909F908F900895EF92FF920F938F
:104500001F93CF93DF93CDB7DEB729970FB6F894FB
:10451000DEBF0FBECDBF8C017B01AE014F5F5F4F91
:104520000E947220882341F0AE014F5F5F4FB701B8
:10453000C8010E94DA2104C060E070E08EEF92ECC6
:1045400029960FB6F894DEBF0FBECDBFDF91CF9195
:104550001F910F91FF90EF9008950F931F93CF93AA
:10456000DF93CDB7DEB728970FB6F894DEBF0FBE46
:10457000CDBF8C01462FBE016F5F7F4F0E94DD1FB4
:10458000BE016F5F7F4FC8010E947D2228960FB643
:10459000F894DEBF0FBECDBFDF91CF911F910F9179
:1045A0000895FF920F931F93CF93DF93FC01008137
:1045B000C181D281F8948981F02EF0948F21898372
:1045C00078941DE7115029F182E090E00E94F126D5
:1045D00088818023B9F3F8948A818F218A83898125
:1045E000802B8983789480EE91E00E94F126F894E4
:1045F00089818F21898386E490E00E94F126888159
:10460000802311E009F010E078948AE991E00E949B
:10461000F126812FDF91CF911F910F91FF90089587
:104620001F93CF93DF93FC011081C181D281912F21
:10463000909560FF12C0F8948A8189238A838981CA
:10464000812B89838AE090E00E94F1268A81812B68
:104650008A83789487E390E011C0F8948A81892353
:104660008A838981812B898381E490E00E94F126ED
:104670008A81812B8A83789485E090E0DF91CF91C5
:104680001F910C94F1260F931F93CF93DF93FC019E
:104690001081C181D281F8948981812B89838A819B
:1046A000012F009580238A8383E090E00E94F12609
:1046B0008981802389838AE090E00E94F126C88165
:1046C000789485E390E00E94F1261C2381E009F4B0
:1046D00080E0DF91CF911F910F910895CF92DF92EB
:1046E000EF92FF920F931F93CF93DF931F92CDB75B
:1046F000DEB76C01E62E08E010E0FF24F39461E0E1
:104700009F2D9E2109F460E0C60149830E94102379
:10471000FF0C0150110949810115110581F7411163
:1047200015C0F894D6011196ED91FC9112979181E4
:104730008C918095892381831196ED91FC9112973C
:1047400092818C9180958923828378940F90DF9158
:10475000CF911F910F91FF90EF90DF90CF90089530
:10476000EF92FF920F931F93CF93DF938C01C8E0DA
:10477000D0E0F12CEE24E394C8010E944323811180
:10478000FE28EE0C2197C1F78F2DDF91CF911F915D
:104790000F91FF90EF900895CF92DF92FF920F93C9
:1047A0001F93CF93DF931F92CDB7DEB78C01F62E08
:1047B00040E065E579830E946E23CF2C7981D72E66
:1047C00088E0F82EF60161916F0140E0C8010E9477
:1047D0006E23FA94B9F70F90DF91CF911F910F914B
:1047E000FF90DF90CF90089540E06CEC0C946E2326
:1047F000FC0113861586148627E030E0DF01A20F46
:10480000B31F13961C922115310519F0215031095F
:10481000F5CF08951F93CF93DF93EC01162F60E03F
:10482000812F0E945F27612F70E0FB01E457FE4F4C
:10483000E491E883FB01E056FE4FE491F0E0EE0FD7
:10484000FF1FEC54FE4F859194919A838983CE018A
:10485000DF91CF911F910C94F823AF92BF92CF922A
:10486000DF92EF92FF920F931F93CF93DF931F92EC
:10487000CDB7DEB75C01D62EE72EFC018585811110
:1048800064C0C50149830E94D1224981811105C0BC
:10489000F50113861586148671C0442319F040E093
:1048A00060EF02C040E06CEEC5010E946E2301E0A3
:1048B000F12CC12C11E0C5010E944323682FC501D2
:1048C00069830E9443236981613019F48130B9F40E
:1048D00033C02F2D30E068131BC0F50183851817F6
:1048E00030F4E20FF31F8381802349F402C01817CC
:1048F00031F060E0193058F4F501148708C0F50173
:10490000EF0DF11D8381802B838361E009C0C12EEF
:10491000F501E20FF31F8381902F90958923838304
:10492000C5010E9410231F5F000F11F4F39401E0F2
:10493000F7E0FF1508F0BFCF113438F0F501C3865A
:10494000C11009C081E0858706C0F5011386158670
:10495000148680E013C0F50183818823B1F3ED2D27
:10496000FE2D80E090E0D501A80FB91F13962C9181
:104970002193019688309105B1F781E00F90DF9186
:10498000CF911F910F91FF90EF90DF90CF90BF904C
:10499000AF900895DC0180E0615038F0ED91E82798
:1049A000F0E0E858FF4F8491F7CF08951F920F92DF
:1049B0000FB60F9211242F933F934F935F936F93F2
:1049C0007F938F939F93AF93BF93EF93FF93E09168
:1049D000F904F091FA040995FF91EF91BF91AF911D
:1049E0009F918F917F916F915F914F913F912F9107
:1049F0000F900FBE0F901F901895FC01A3E0440F7D
:104A0000551F661F771FAA95D1F74115510581E003
:104A10006807710514F481E00EC033E07595679561
:104A2000579547953A95D1F74115510581E06807AB
:104A300071051CF482E0828331C023E0759567958F
:104A4000579547952A95D1F74115510581E068079B
:104A5000710514F483E0EFCF92E075956795579553
:104A600047959A95D1F74115510581E06807710581
:104A700014F484E0E0CF82E07595679557954795EB
:104A80008A95D1F785E082834115510581E0680759
:104A9000710524F04FEF5FEF60E070E051834083D9
:104AA000509387004093860080918100887F809397
:104AB0008100809181009281892B809381000895EB
:104AC0001092800020E1209381000C94FD24E1E805
:104AD000F0E02081DC0112968C91282B2083089530
:104AE0000F931F93CF93DF93EC018B01BA01A901C0
:104AF000141615061606170614F40E94FD241C83CE
:104B00000B8381E080936F007894CE01DF91CF9189
:104B10001F910F910C9467250F931F93CF93DF93F1
:104B2000EC01662359F00E949A2669837A838B836D
:104B30009C83DF91CF911F910F9108950E949A2637
:104B400009811A812B813C81601B710B820B930BB5
:104B5000643671058105910530F763E070E080E00F
:104B600090E00E94C926EACF60E00C948C25FC01FD
:104B700013AA14AA15AA16AA1182128213821482E9
:104B8000411551056105710521F0CB01BA010C9465
:104B9000C9260895FB01BA01A901DC01D296FC9354
:104BA000EE93D19726E0CF010C94B1281F93CF93B9
:104BB000DF93EC01162F69E372E089A99AA90E949C
:104BC0004F2A4AE050E0612F89A99AA90E94462BFA
:104BD00060E472E089A99AA90E944F2A62E370E01A
:104BE00080E090E0DF91CF911F910C94C9261F9334
:104BF000CF93DF93EC01162F8D81882389F189A94A
:104C00009AA9DC01ED91FC910480F581E02D0995D4
:104C1000892BA9F307C02637310519F1283531054D
:104C200009F41D8289A99AA9DC01ED91FC91048007
:104C3000F581E02D09951816190694F489A99AA909
:104C4000DC01ED91FC910680F781E02D09959C0136
:104C5000332723363105F9F6612FCE010E94D62580
:104C600083E6DF91CF911F9108950F931F93CF9308
:104C7000DF931F92CDB7DEB78C01662349F081E048
:104C8000F801858360E0C80149830E94F7254981C6
:104C9000F80145830F90DF91CF911F910F910895F7
:104CA0001F920F920FB60F9211242F933F938F9361
:104CB0009F93AF93BF938091330590913405A0915A
:104CC0003505B09136053091320523E0230F2D379D
:104CD00020F40196A11DB11D05C026E8230F029600
:104CE000A11DB11D209332058093330590933405A7
:104CF000A0933505B093360580913705909138051E
:104D0000A0913905B0913A050196A11DB11D80937E
:104D1000370590933805A0933905B0933A05BF91B4
:104D2000AF919F918F913F912F910F900FBE0F9058
:104D30001F9018952FB7F894609133057091340542
:104D400080913505909136052FBF08953FB7F894AF
:104D50008091370590913805A0913905B0913A05B9
:104D600026B5A89B05C02F3F19F00196A11DB11DC6
:104D70003FBF6627782F892F9A2F620F711D811DE3
:104D8000911D42E0660F771F881F991F4A95D1F742
:104D90000895CF92DF92EF92FF92CF93DF936B0152
:104DA0007C010E94A626EB01C114D104E104F104A8
:104DB00089F00E94642C0E94A6266C1B7D0B683E25
:104DC000734090F381E0C81AD108E108F108C85196
:104DD000DC4FEACFDF91CF91FF90EF90DF90CF9043
:104DE0000895019739F0880F991F880F991F02972E
:104DF0000197F1F70895789484B5826084BD84B5F5
:104E0000816084BD85B5826085BD85B5816085BDC5
:104E1000EEE6F0E0808181608083E1E8F0E01082DE
:104E2000808182608083808181608083E0E8F0E01F
:104E3000808181608083E1EBF0E080818460808309
:104E4000E0EBF0E0808181608083EAE7F0E0808140
:104E500084608083808182608083808181608083A0
:104E60008081806880831092C1000895833081F032
:104E700028F4813099F08230A1F008958730A9F0AC
:104E80008830B9F08430D1F4809180008F7D03C0E8
:104E9000809180008F7780938000089584B58F770C
:104EA00002C084B58F7D84BD08958091B0008F7756
:104EB00003C08091B0008F7D8093B0000895CF93A0
:104EC000DF9390E0FC01E457FE4F2491FC01E05693
:104ED000FE4F8491882349F190E0880F991FFC01CF
:104EE000E853FE4FA591B49182549E4FFC01C591A9
:104EF000D4919FB7611108C0F8948C9120958223BA
:104F00008C93888182230AC0623051F4F8948C918A
:104F1000322F309583238C938881822B888304C021
:104F2000F8948C91822B8C939FBFDF91CF91089541
:104F30000F931F93CF93DF931F92CDB7DEB7282F28
:104F400030E0F901E858FE4F8491F901E457FE4F33
:104F50001491F901E056FE4F04910023C9F0882313
:104F600021F069830E9436276981E02FF0E0EE0F7F
:104F7000FF1FE254FE4FA591B4919FB7F8948C9116
:104F8000611103C01095812301C0812B8C939FBFB9
:104F90000F90DF91CF911F910F910895FC01818DAA
:104FA000228D90E0805C9F4F821B91098F7399271F
:104FB0000895FC01918D828D981731F0828DE80F54
:104FC000F11D858D90E008958FEF9FEF0895FC010E
:104FD000918D828D981761F0828DDF01A80FB11D30
:104FE0005D968C91928D9F5F9F73928F90E0089554
:104FF0008FEF9FEF08958BE699E2892B49F080E0CF
:1050000090E0892B29F00E946B2981110C940000FB
:105010000895FC01848DDF01A80FB11DA35ABF4F75
:105020002C91848D90E001968F739927848FA689A7
:10503000B7892C93A089B1898C9180648C93938DCE
:10504000848D981306C00288F389E02D80818F7DBE
:1050500080830895CF93DF93EC01888D8823C9F076
:10506000EA89FB89808185FD05C0A889B9898C9171
:1050700086FD0FC00FB607FCF5CF808185FFF2CF0C
:10508000A889B9898C9185FFEDCFCE010E940928AE
:10509000E7CFDF91CF910895CF92DF92FF920F93E8
:1050A0001F93CF93DF931F92CDB7DEB76C01DC0166
:1050B0005B969C915B975C968C915C97981307C06C
:1050C0005096ED91FC915197808185FD32C0F6019B
:1050D000038D10E00F5F1F4F0F731127F02EF601A5
:1050E000848DF81211C00FB607FCF9CFD601509687
:1050F000ED91FC915197808185FFF1CFC6016983C5
:105100000E9409286981EBCF838DE80FF11DE35AD6
:10511000FF4F6083D6015B960C935B975296ED919F
:10512000FC91539780818062808381E058968C93B4
:105130000DC0D6015696ED91FC915797608350961D
:10514000ED91FC91519780818064808381E090E0B3
:105150000F90DF91CF911F910F91FF90DF90CF9033
:105160000895BF92CF92DF92EF92FF92CF93DF9399
:10517000EC016A017B01B22EE889F98982E0808323
:10518000411581EE580761057105A1F060E079E0F5
:105190008DE390E0A70196010E94542E2150310921
:1051A000410951095695479537952795211580E175
:1051B000380798F0E889F989108260E874E88EE190
:1051C00090E0A70196010E94542E21503109410917
:1051D00051095695479537952795EC85FD85308380
:1051E000EE85FF852083188EEC89FD89B082EA89DF
:1051F000FB89808180618083EA89FB898081886066
:105200008083EA89FB89808180688083EA89FB89C1
:1052100080818F7D8083DF91CF91FF90EF90DF9031
:10522000CF90BF9008951F920F920FB60F92112446
:105230002F938F939F93EF93FF93E0914B05F09102
:105240004C058081E0915105F091520582FD12C01C
:105250009081809154058F5F8F732091550582173F
:1052600051F0E0915405F0E0E55CFA4F958F8093A2
:10527000540501C08081FF91EF919F918F912F91F3
:105280000F900FBE0F901F9018951F920F920FB6A0
:105290000F9211242F933F934F935F936F937F93BC
:1052A0008F939F93AF93BF93EF93FF938BE395E01F
:1052B0000E940928FF91EF91BF91AF919F918F912B
:1052C0007F916F915F914F913F912F910F900FBE02
:1052D0000F901F9018958BE395E00E94CE2721E058
:1052E000892B09F420E0822F089510923E05109238
:1052F0003D0588EE93E0A0E0B0E080933F059093F9
:105300004005A0934105B093420585E992E0909352
:105310003C0580933B0585EC90E090934805809395
:10532000470584EC90E090934A058093490580EC12
:1053300090E090934C0580934B0581EC90E0909326
:105340004E0580934D0582EC90E09093500580933C
:105350004F0586EC90E09093520580935105109292
:105360005405109255051092560510925705089550
:10537000AF92BF92CF92DF92EF92FF920F931F9363
:10538000CF93DF936C017B01C0E0D0E000E010E040
:10539000F601EC0FFD1F4AE050E06281C7010E9458
:1053A000462B5C016EE2C7010E94512A8A0D9B1DAB
:1053B000080F191F2196C330D10551F74AE050E07C
:1053C000F6016581C7010E94462B800F911FDF9176
:1053D000CF911F910F91FF90EF90DF90CF90BF90F2
:1053E000AF90089525EA32E0FC01318320831282D8
:1053F00013821482158208950F93FC0185EA92E0CE
:105400009183808362834383248305830F9108956E
:1054100085EA92E09093D9058093D8051092DA0539
:105420001092DB051092DC051092DD0508950895B9
:105430000E94FB260E94172A0E943201CBEFD7E27E
:105440000E941B052097E1F30E94FB27F9CFCF9222
:10545000DF92EF92FF920F931F93CF93DF936C0134
:105460007A01EB01E60EF71E00E010E0CE15DF0535
:1054700061F06991D601ED91FC910190F081E02DF0
:10548000C6010995080F191FF1CFC801DF91CF910F
:105490001F910F91FF90EF90DF90CF9008950C94A3
:1054A0001C01DC01ED91FC910190F081E02D09944B
:1054B0000F931F93CF93DF93EC016DE00E94512A6D
:1054C0008C016AE0CE010E94512A800F911FDF916A
:1054D000CF911F910F9108950F931F93CF93DF9357
:1054E000EC010E941C018C01CE010E94582A800F01
:1054F000911FDF91CF911F910F9108958F929F92ED
:10550000AF92BF92CF92DF92EF92FF920F931F93D1
:10551000CF93DF93CDB7DEB7A1970FB6F894DEBF78
:105520000FBECDBF7C01C42EE52FCB01D22E19A218
:1055300021E02D1510F02AE0D22E8E010F5D1F4FB5
:105540008D2C912CA12CB12C6C2D7E2FA5019401BA
:105550000E94542E8C2DD29E8019112401501109C5
:105560008A3014F4805D01C0895CF80180832115C4
:1055700031054105510521F0C22EE32FCA01E4CFC8
:10558000B801C7010E941C01A1960FB6F894DEBFB6
:105590000FBECDBFDF91CF911F910F91FF90EF9084
:1055A000DF90CF90BF90AF909F908F900895CF9253
:1055B000DF92EF92FF920F931F93CF93DF93EC0153
:1055C0006A017B012115310579F4E881F9810190A7
:1055D000F081E02D642FDF91CF911F910F91FF900B
:1055E000EF90DF90CF9009942A303105E9F477FFEE
:1055F0001AC06DE20E94512A8C0144275527BA0136
:105600004C195D096E097F092AE0CE010E947E2AAD
:10561000800F911FDF91CF911F910F91FF90EF901D
:10562000DF90CF9008952AE0B701A601CE01DF9167
:10563000CF911F910F91FF90EF90DF90CF900C943E
:105640007E2A0F931F93CF93DF93EC019A01AB0156
:10565000662757FD6095762F0E94D72A8C01CE01D0
:105660000E94582A800F911FDF91CF911F910F91B7
:1056700008952115310541F4DC01ED91FC91019073
:10568000F081E02D642F09940C947E2A9A01462F14
:1056900050E060E070E00C94392BFC018081918136
:1056A0000C94362FCF93DF93EC018881998100977A
:1056B00011F00E94362F198218821D821C821B82D3
:1056C0001A82DF91CF9108950F931F93CF93DF93A9
:1056D000EC018B016F5F7F4F888199810E94C52FFC
:1056E000009731F0998388831B830A8381E001C08E
:1056F00080E0DF91CF911F910F910895CF93DF93B9
:10570000EC0188819981892B29F08A819B818617F8
:10571000970760F4CE010E94642B882341F08C81AE
:105720009D81892B19F4E881F981108281E0DF9154
:10573000CF910895EF92FF920F931F93CF93DF9332
:10574000EC017B018A01BA010E947E2B811104C009
:10575000CE010E94522B07C01D830C83B7018881A4
:1057600099810E94BD30CE01DF91CF911F910F91A1
:10577000FF90EF900895FC01118210821382128233
:10578000158214826115710559F0FB01019000200A
:10579000E9F7AF0141505109461B570B0C949A2B66
:1057A0000895EF92FF920F931F93CF93DF93EC0135
:1057B0007B010C811D816115710511F480E016C01B
:1057C0004115510591F0040F151FB8010E947E2B61
:1057D0008823A1F3288139818C819D81B701820FB3
:1057E000931F0E94BD301D830C8381E0DF91CF9118
:1057F0001F910F91FF90EF9008956115710559F079
:10580000FB0101900020E9F7AF0141505109461B0F
:10581000570B0C94D12B80E00895EF92FF920F93D9
:105820001F93CF93DF9300D000D0CDB7DEB77C01BC
:10583000862F4AE050E08E010F5F1F4FB80190E0C5
:105840000E94D330F80101900020E9F7AF014150E8
:105850005109401B510BB801C7010E94D12B0F9079
:105860000F900F900F90DF91CF911F910F91FF90AC
:10587000EF9008950F931F93CF93DF93EB014115A2
:105880005105E9F02097D9F0FC0164817581261754
:105890003707A0F4621B730B8A01015011096017CE
:1058A000710708F48B01FC0160817181620F731F25
:1058B000A801CE010E94C430C00FD11F1882DF9111
:1058C000CF911F910F91089508955058BB27AA2793
:1058D0000ED04DC13ED130F043D120F031F49F3F86
:1058E00011F41EF433C10EF4E095E7FB29C1E92F52
:1058F0004FD180F3BA17620773078407950718F032
:1059000071F49EF567C10EF4E0950B2EBA2FA02D11
:105910000B01B90190010C01CA01A0011124FF275C
:10592000591B99F0593F50F4503E68F11A16F04057
:10593000A22F232F342F4427585FF3CF4695379556
:105940002795A795F0405395C9F77EF41F16BA0B1B
:10595000620B730B840BBAF09150A1F0FF0FBB1FC9
:10596000661F771F881FC2F70EC0BA0F621F731F12
:10597000841F48F4879577956795B795F7959E3F6F
:1059800008F0B3CF9395880F08F09927EE0F9795FD
:10599000879508950CD0EBC0E3D040F0DAD030F01A
:1059A00021F45F3F19F0CCC0511115C1CFC0F0D028
:1059B00098F39923C9F35523B1F3951B550BBB27D6
:1059C000AA2762177307840738F09F5F5F4F220F83
:1059D000331F441FAA1FA9F333D00E2E3AF0E0E87C
:1059E00030D091505040E695001CCAF729D0FE2FC8
:1059F00027D0660F771F881FBB1F2617370748075A
:105A0000AB07B0E809F0BB0B802DBF01FF2793580F
:105A10005F4F2AF09E3F510568F092C0DCC05F3FA7
:105A2000ECF3983EDCF3869577956795B795F795F7
:105A30009F5FC9F7880F911D9695879597F90895EF
:105A4000E1E0660F771F881FBB1F6217730784078B
:105A5000BA0720F0621B730B840BBA0BEE1F88F79A
:105A6000E095089504D06894B111B5C0089598D018
:105A700088F09F5790F0B92F9927B751A0F0D1F037
:105A8000660F771F881F991F1AF0BA95C9F712C0C1
:105A9000B13081F09FD0B1E008959CC0672F782F7E
:105AA0008827B85F39F0B93FCCF38695779567952D
:105AB000B395D9F73EF490958095709561957F4F99
:105AC0008F4F9F4F0895E89409C097FB3EF490953F
:105AD0008095709561957F4F8F4F9F4F9923A9F0C7
